{
  "_format": "hh-sol-artifact-1",
  "contractName": "OVM_CrossDomainEnabled",
  "sourceName": "@eth-optimism/contracts/libraries/bridge/OVM_CrossDomainEnabled.sol",
  "abi": [
    {
      "inputs": [
        {
          "internalType": "address",
          "name": "_messenger",
          "type": "address"
        }
      ],
      "stateMutability": "nonpayable",
      "type": "constructor"
    },
    {
      "inputs": [],
      "name": "messenger",
      "outputs": [
        {
          "internalType": "address",
          "name": "",
          "type": "address"
        }
      ],
      "stateMutability": "view",
      "type": "function"
    }
  ],
  "bytecode": "0x608060405234801561001057600080fd5b5060405161014c38038061014c8339818101604052602081101561003357600080fd5b8101908080519060200190929190505050806000806101000a81548173ffffffffffffffffffffffffffffffffffffffff021916908373ffffffffffffffffffffffffffffffffffffffff1602179055505060b9806100936000396000f3fe6080604052348015600f57600080fd5b506004361060285760003560e01c80633cb747bf14602d575b600080fd5b6033605f565b604051808273ffffffffffffffffffffffffffffffffffffffff16815260200191505060405180910390f35b60008054906101000a900473ffffffffffffffffffffffffffffffffffffffff168156fea26469706673582212200756a7b50792e22b951b08e72d9e51a9cef77a66cf314719c40074ab983dd06464736f6c63430007060033",
  "linkReferences": {},
  "deployedLinkReferences": {}
}