{
  "_format": "hh-sol-artifact-1",
  "contractName": "L2DepositedERC20",
  "sourceName": "contracts/L2DepositedERC20.sol",
  "abi": [
    {
      "inputs": [
        {
          "internalType": "address",
          "name": "_l2CrossDomainMessenger",
          "type": "address"
        },
        {
          "internalType": "string",
          "name": "_name",
          "type": "string"
        }
      ],
      "stateMutability": "nonpayable",
      "type": "constructor"
    },
    {
      "anonymous": false,
      "inputs": [
        {
          "indexed": true,
          "internalType": "address",
          "name": "_owner",
          "type": "address"
        },
        {
          "indexed": true,
          "internalType": "address",
          "name": "_spender",
          "type": "address"
        },
        {
          "indexed": false,
          "internalType": "uint256",
          "name": "_value",
          "type": "uint256"
        }
      ],
      "name": "Approval",
      "type": "event"
    },
    {
      "anonymous": false,
      "inputs": [
        {
          "indexed": true,
          "internalType": "address",
          "name": "_to",
          "type": "address"
        },
        {
          "indexed": false,
          "internalType": "uint256",
          "name": "_amount",
          "type": "uint256"
        }
      ],
      "name": "DepositFinalized",
      "type": "event"
    },
    {
      "anonymous": false,
      "inputs": [
        {
          "indexed": false,
          "internalType": "contract iOVM_L1TokenGateway",
          "name": "_l1TokenGateway",
          "type": "address"
        }
      ],
      "name": "Initialized",
      "type": "event"
    },
    {
      "anonymous": false,
      "inputs": [
        {
          "indexed": true,
          "internalType": "address",
          "name": "_from",
          "type": "address"
        },
        {
          "indexed": true,
          "internalType": "address",
          "name": "_to",
          "type": "address"
        },
        {
          "indexed": false,
          "internalType": "uint256",
          "name": "_value",
          "type": "uint256"
        }
      ],
      "name": "Transfer",
      "type": "event"
    },
    {
      "anonymous": false,
      "inputs": [
        {
          "indexed": true,
          "internalType": "address",
          "name": "_from",
          "type": "address"
        },
        {
          "indexed": false,
          "internalType": "address",
          "name": "_to",
          "type": "address"
        },
        {
          "indexed": false,
          "internalType": "uint256",
          "name": "_amount",
          "type": "uint256"
        }
      ],
      "name": "WithdrawalInitiated",
      "type": "event"
    },
    {
      "inputs": [
        {
          "internalType": "address",
          "name": "_owner",
          "type": "address"
        },
        {
          "internalType": "address",
          "name": "_spender",
          "type": "address"
        }
      ],
      "name": "allowance",
      "outputs": [
        {
          "internalType": "uint256",
          "name": "",
          "type": "uint256"
        }
      ],
      "stateMutability": "view",
      "type": "function"
    },
    {
      "inputs": [
        {
          "internalType": "address",
          "name": "",
          "type": "address"
        },
        {
          "internalType": "address",
          "name": "",
          "type": "address"
        }
      ],
      "name": "allowances",
      "outputs": [
        {
          "internalType": "uint256",
          "name": "",
          "type": "uint256"
        }
      ],
      "stateMutability": "view",
      "type": "function"
    },
    {
      "inputs": [
        {
          "internalType": "address",
          "name": "_spender",
          "type": "address"
        },
        {
          "internalType": "uint256",
          "name": "_amount",
          "type": "uint256"
        }
      ],
      "name": "approve",
      "outputs": [
        {
          "internalType": "bool",
          "name": "",
          "type": "bool"
        }
      ],
      "stateMutability": "nonpayable",
      "type": "function"
    },
    {
      "inputs": [
        {
          "internalType": "address",
          "name": "_owner",
          "type": "address"
        }
      ],
      "name": "balanceOf",
      "outputs": [
        {
          "internalType": "uint256",
          "name": "",
          "type": "uint256"
        }
      ],
      "stateMutability": "view",
      "type": "function"
    },
    {
      "inputs": [
        {
          "internalType": "address",
          "name": "",
          "type": "address"
        }
      ],
      "name": "balances",
      "outputs": [
        {
          "internalType": "uint256",
          "name": "",
          "type": "uint256"
        }
      ],
      "stateMutability": "view",
      "type": "function"
    },
    {
      "inputs": [
        {
          "internalType": "address",
          "name": "_to",
          "type": "address"
        },
        {
          "internalType": "uint256",
          "name": "_amount",
          "type": "uint256"
        }
      ],
      "name": "finalizeDeposit",
      "outputs": [],
      "stateMutability": "nonpayable",
      "type": "function"
    },
    {
      "inputs": [],
      "name": "getFinalizeWithdrawalL1Gas",
      "outputs": [
        {
          "internalType": "uint32",
          "name": "",
          "type": "uint32"
        }
      ],
      "stateMutability": "view",
      "type": "function"
    },
    {
      "inputs": [
        {
          "internalType": "contract iOVM_L1TokenGateway",
          "name": "_l1TokenGateway",
          "type": "address"
        }
      ],
      "name": "init",
      "outputs": [],
      "stateMutability": "nonpayable",
      "type": "function"
    },
    {
      "inputs": [],
      "name": "l1TokenGateway",
      "outputs": [
        {
          "internalType": "contract iOVM_L1TokenGateway",
          "name": "",
          "type": "address"
        }
      ],
      "stateMutability": "view",
      "type": "function"
    },
    {
      "inputs": [],
      "name": "messenger",
      "outputs": [
        {
          "internalType": "address",
          "name": "",
          "type": "address"
        }
      ],
      "stateMutability": "view",
      "type": "function"
    },
    {
      "inputs": [],
      "name": "name",
      "outputs": [
        {
          "internalType": "string",
          "name": "",
          "type": "string"
        }
      ],
      "stateMutability": "view",
      "type": "function"
    },
    {
      "inputs": [],
      "name": "totalSupply",
      "outputs": [
        {
          "internalType": "uint256",
          "name": "",
          "type": "uint256"
        }
      ],
      "stateMutability": "view",
      "type": "function"
    },
    {
      "inputs": [
        {
          "internalType": "address",
          "name": "_to",
          "type": "address"
        },
        {
          "internalType": "uint256",
          "name": "_amount",
          "type": "uint256"
        }
      ],
      "name": "transfer",
      "outputs": [
        {
          "internalType": "bool",
          "name": "",
          "type": "bool"
        }
      ],
      "stateMutability": "nonpayable",
      "type": "function"
    },
    {
      "inputs": [
        {
          "internalType": "address",
          "name": "_from",
          "type": "address"
        },
        {
          "internalType": "address",
          "name": "_to",
          "type": "address"
        },
        {
          "internalType": "uint256",
          "name": "_amount",
          "type": "uint256"
        }
      ],
      "name": "transferFrom",
      "outputs": [
        {
          "internalType": "bool",
          "name": "",
          "type": "bool"
        }
      ],
      "stateMutability": "nonpayable",
      "type": "function"
    },
    {
      "inputs": [
        {
          "internalType": "uint256",
          "name": "_amount",
          "type": "uint256"
        }
      ],
      "name": "withdraw",
      "outputs": [],
      "stateMutability": "nonpayable",
      "type": "function"
    },
    {
      "inputs": [
        {
          "internalType": "address",
          "name": "_to",
          "type": "address"
        },
        {
          "internalType": "uint256",
          "name": "_amount",
          "type": "uint256"
        }
      ],
      "name": "withdrawTo",
      "outputs": [],
      "stateMutability": "nonpayable",
      "type": "function"
    }
  ],
  "bytecode": "0x60806040523480156200001157600080fd5b5060405162001ead38038062001ead83398181016040528101906200003791906200022b565b6000818380806000806101000a81548173ffffffffffffffffffffffffffffffffffffffff021916908373ffffffffffffffffffffffffffffffffffffffff160217905550505081600260003373ffffffffffffffffffffffffffffffffffffffff1673ffffffffffffffffffffffffffffffffffffffff16815260200190815260200160002081905550816004819055508060059080519060200190620000e1929190620000ec565b505050505062000372565b828054600181600116156101000203166002900490600052602060002090601f01602090048101928262000124576000855562000170565b82601f106200013f57805160ff191683800117855562000170565b8280016001018555821562000170579182015b828111156200016f57825182559160200191906001019062000152565b5b5090506200017f919062000183565b5090565b5b808211156200019e57600081600090555060010162000184565b5090565b6000620001b9620001b384620002b9565b62000285565b905082815260208101848484011115620001d257600080fd5b620001df84828562000320565b509392505050565b600081519050620001f88162000358565b92915050565b600082601f8301126200021057600080fd5b815162000222848260208601620001a2565b91505092915050565b600080604083850312156200023f57600080fd5b60006200024f85828601620001e7565b925050602083015167ffffffffffffffff8111156200026d57600080fd5b6200027b85828601620001fe565b9150509250929050565b6000604051905081810181811067ffffffffffffffff82111715620002af57620002ae62000356565b5b8060405250919050565b600067ffffffffffffffff821115620002d757620002d662000356565b5b601f19601f8301169050602081019050919050565b6000620002f98262000300565b9050919050565b600073ffffffffffffffffffffffffffffffffffffffff82169050919050565b60005b838110156200034057808201518184015260208101905062000323565b8381111562000350576000848401525b50505050565bfe5b6200036381620002ec565b81146200036f57600080fd5b50565b611b2b80620003826000396000f3fe608060405234801561001057600080fd5b50600436106101005760003560e01c80633cb747bf11610097578063a84ce98c11610066578063a84ce98c146102bf578063a9059cbb146102dd578063bdeaf6411461030d578063dd62ed3e1461032b57610100565b80633cb747bf1461022557806355b6ed5c1461024357806370a08231146102735780638d6e9a5b146102a357610100565b8063205c2878116100d3578063205c28781461018d57806323b872dd146101a957806327e235e3146101d95780632e1a7d4d1461020957610100565b806306fdde0314610105578063095ea7b31461012357806318160ddd1461015357806319ab453c14610171575b600080fd5b61010d61035b565b60405161011a91906117ac565b60405180910390f35b61013d60048036038101906101389190611554565b6103f9565b60405161014a9190611776565b60405180910390f35b61015b6104eb565b604051610168919061180e565b60405180910390f35b61018b60048036038101906101869190611590565b6104f1565b005b6101a760048036038101906101a29190611554565b61061f565b005b6101c360048036038101906101be9190611505565b6106bf565b6040516101d09190611776565b60405180910390f35b6101f360048036038101906101ee91906114a0565b610938565b604051610200919061180e565b60405180910390f35b610223600480360381019061021e91906115b9565b610950565b005b61022d6109ef565b60405161023a9190611732565b60405180910390f35b61025d600480360381019061025891906114c9565b610a13565b60405161026a919061180e565b60405180910390f35b61028d600480360381019061028891906114a0565b610a38565b60405161029a919061180e565b60405180910390f35b6102bd60048036038101906102b89190611554565b610a81565b005b6102c7610d29565b6040516102d49190611791565b60405180910390f35b6102f760048036038101906102f29190611554565b610d4f565b6040516103049190611776565b60405180910390f35b610315610ef2565b6040516103229190611829565b60405180910390f35b610345600480360381019061034091906114c9565b610efd565b604051610352919061180e565b60405180910390f35b60058054600181600116156101000203166002900480601f0160208091040260200160405190810160405280929190818152602001828054600181600116156101000203166002900480156103f15780601f106103c6576101008083540402835291602001916103f1565b820191906000526020600020905b8154815290600101906020018083116103d457829003601f168201915b505050505081565b600081600360003373ffffffffffffffffffffffffffffffffffffffff1673ffffffffffffffffffffffffffffffffffffffff16815260200190815260200160002060008573ffffffffffffffffffffffffffffffffffffffff1673ffffffffffffffffffffffffffffffffffffffff168152602001908152602001600020819055508273ffffffffffffffffffffffffffffffffffffffff163373ffffffffffffffffffffffffffffffffffffffff167f8c5be1e5ebec7d5bd14f71427d1e84f3dd0314c0f7b2291e5b200ac8c7c3b925846040518082815260200191505060405180910390a36001905092915050565b60045481565b600073ffffffffffffffffffffffffffffffffffffffff16600160009054906101000a900473ffffffffffffffffffffffffffffffffffffffff1673ffffffffffffffffffffffffffffffffffffffff1614610582576040517f08c379a0000000000000000000000000000000000000000000000000000000008152600401610579906117ce565b60405180910390fd5b80600160006101000a81548173ffffffffffffffffffffffffffffffffffffffff021916908373ffffffffffffffffffffffffffffffffffffffff1602179055507f908408e307fc569b417f6cbec5d5a06f44a0a505ac0479b47d421a4b2fd6a1e6600160009054906101000a900473ffffffffffffffffffffffffffffffffffffffff166040516106149190611791565b60405180910390a150565b600073ffffffffffffffffffffffffffffffffffffffff16600160009054906101000a900473ffffffffffffffffffffffffffffffffffffffff1673ffffffffffffffffffffffffffffffffffffffff1614156106b1576040517f08c379a00000000000000000000000000000000000000000000000000000000081526004016106a8906117ee565b60405180910390fd5b6106bb8282610f84565b5050565b600081600260008673ffffffffffffffffffffffffffffffffffffffff1673ffffffffffffffffffffffffffffffffffffffff168152602001908152602001600020541015610759576040517f08c379a000000000000000000000000000000000000000000000000000000000815260040180806020018281038252604f8152602001806119fc604f913960600191505060405180910390fd5b81600360008673ffffffffffffffffffffffffffffffffffffffff1673ffffffffffffffffffffffffffffffffffffffff16815260200190815260200160002060003373ffffffffffffffffffffffffffffffffffffffff1673ffffffffffffffffffffffffffffffffffffffff16815260200190815260200160002054101561082e576040517f08c379a00000000000000000000000000000000000000000000000000000000081526004018080602001828103825260568152602001806119786056913960600191505060405180910390fd5b81600260008573ffffffffffffffffffffffffffffffffffffffff1673ffffffffffffffffffffffffffffffffffffffff1681526020019081526020016000206000828254019250508190555081600260008673ffffffffffffffffffffffffffffffffffffffff1673ffffffffffffffffffffffffffffffffffffffff168152602001908152602001600020600082825403925050819055508273ffffffffffffffffffffffffffffffffffffffff168473ffffffffffffffffffffffffffffffffffffffff167fddf252ad1be2c89b69c2b068fc378daa952ba7f163c4a11628f55a4df523b3ef846040518082815260200191505060405180910390a3600190509392505050565b60026020528060005260406000206000915090505481565b600073ffffffffffffffffffffffffffffffffffffffff16600160009054906101000a900473ffffffffffffffffffffffffffffffffffffffff1673ffffffffffffffffffffffffffffffffffffffff1614156109e2576040517f08c379a00000000000000000000000000000000000000000000000000000000081526004016109d9906117ee565b60405180910390fd5b6109ec3382610f84565b50565b60008054906101000a900473ffffffffffffffffffffffffffffffffffffffff1681565b6003602052816000526040600020602052806000526040600020600091509150505481565b6000600260008373ffffffffffffffffffffffffffffffffffffffff1673ffffffffffffffffffffffffffffffffffffffff168152602001908152602001600020549050919050565b600073ffffffffffffffffffffffffffffffffffffffff16600160009054906101000a900473ffffffffffffffffffffffffffffffffffffffff1673ffffffffffffffffffffffffffffffffffffffff161415610b13576040517f08c379a0000000000000000000000000000000000000000000000000000000008152600401610b0a906117ee565b60405180910390fd5b600160009054906101000a900473ffffffffffffffffffffffffffffffffffffffff16610b3e611093565b73ffffffffffffffffffffffffffffffffffffffff163373ffffffffffffffffffffffffffffffffffffffff1614610bc1576040517f08c379a000000000000000000000000000000000000000000000000000000000815260040180806020018281038252602e8152602001806119ce602e913960400191505060405180910390fd5b8073ffffffffffffffffffffffffffffffffffffffff16610be0611093565b73ffffffffffffffffffffffffffffffffffffffff16636e296e456040518163ffffffff1660e01b815260040160206040518083038186803b158015610c2557600080fd5b505afa158015610c39573d6000803e3d6000fd5b505050506040513d6020811015610c4f57600080fd5b810190808051906020019092919050505073ffffffffffffffffffffffffffffffffffffffff1614610ccc576040517f08c379a0000000000000000000000000000000000000000000000000000000008152600401808060200182810382526030815260200180611a4b6030913960400191505060405180910390fd5b610cd683836110bc565b8273ffffffffffffffffffffffffffffffffffffffff167f162eb12ad2bd8b6ca7960f162208414ab3bc2da9f37953788ffd8cf850c3492b83604051610d1c919061180e565b60405180910390a2505050565b600160009054906101000a900473ffffffffffffffffffffffffffffffffffffffff1681565b600081600260003373ffffffffffffffffffffffffffffffffffffffff1673ffffffffffffffffffffffffffffffffffffffff168152602001908152602001600020541015610de9576040517f08c379a0000000000000000000000000000000000000000000000000000000008152600401808060200182810382526034815260200180611aa06034913960400191505060405180910390fd5b81600260003373ffffffffffffffffffffffffffffffffffffffff1673ffffffffffffffffffffffffffffffffffffffff1681526020019081526020016000206000828254039250508190555081600260008573ffffffffffffffffffffffffffffffffffffffff1673ffffffffffffffffffffffffffffffffffffffff168152602001908152602001600020600082825401925050819055508273ffffffffffffffffffffffffffffffffffffffff163373ffffffffffffffffffffffffffffffffffffffff167fddf252ad1be2c89b69c2b068fc378daa952ba7f163c4a11628f55a4df523b3ef846040518082815260200191505060405180910390a36001905092915050565b6000620186a0905090565b6000600360008473ffffffffffffffffffffffffffffffffffffffff1673ffffffffffffffffffffffffffffffffffffffff16815260200190815260200160002060008373ffffffffffffffffffffffffffffffffffffffff1673ffffffffffffffffffffffffffffffffffffffff16815260200190815260200160002054905092915050565b610f8e82826110ca565b600063f4f7b41a60e01b8383604051602401610fab92919061174d565b604051602081830303815290604052907bffffffffffffffffffffffffffffffffffffffffffffffffffffffff19166020820180517bffffffffffffffffffffffffffffffffffffffffffffffffffffffff8381831617835250505050905061103e600160009054906101000a900473ffffffffffffffffffffffffffffffffffffffff1682611039610ef2565b6110d8565b3373ffffffffffffffffffffffffffffffffffffffff167fbb2689ff876f7ef453cf8865dde5ab10349d222e2e1383c5152fbdb083f02da2848460405161108692919061174d565b60405180910390a2505050565b60008060009054906101000a900473ffffffffffffffffffffffffffffffffffffffff16905090565b6110c682826111e0565b5050565b6110d433826112a7565b5050565b6110e0611093565b73ffffffffffffffffffffffffffffffffffffffff16633dbb202b8484846040518463ffffffff1660e01b8152600401808473ffffffffffffffffffffffffffffffffffffffff168152602001806020018363ffffffff168152602001828103825284818151815260200191508051906020019080838360005b8381101561117557808201518184015260208101905061115a565b50505050905090810190601f1680156111a25780820380516001836020036101000a031916815260200191505b50945050505050600060405180830381600087803b1580156111c357600080fd5b505af11580156111d7573d6000803e3d6000fd5b50505050505050565b8060046000828254019250508190555080600260008473ffffffffffffffffffffffffffffffffffffffff1673ffffffffffffffffffffffffffffffffffffffff168152602001908152602001600020600082825401925050819055508173ffffffffffffffffffffffffffffffffffffffff16600073ffffffffffffffffffffffffffffffffffffffff167fddf252ad1be2c89b69c2b068fc378daa952ba7f163c4a11628f55a4df523b3ef836040518082815260200191505060405180910390a35050565b806004541015611302576040517f08c379a0000000000000000000000000000000000000000000000000000000008152600401808060200182810382526022815260200180611ad46022913960400191505060405180910390fd5b80600260008473ffffffffffffffffffffffffffffffffffffffff1673ffffffffffffffffffffffffffffffffffffffff16815260200190815260200160002054101561139a576040517f08c379a0000000000000000000000000000000000000000000000000000000008152600401808060200182810382526025815260200180611a7b6025913960400191505060405180910390fd5b8060046000828254039250508190555080600260008473ffffffffffffffffffffffffffffffffffffffff1673ffffffffffffffffffffffffffffffffffffffff16815260200190815260200160002060008282540392505081905550600073ffffffffffffffffffffffffffffffffffffffff168273ffffffffffffffffffffffffffffffffffffffff167fddf252ad1be2c89b69c2b068fc378daa952ba7f163c4a11628f55a4df523b3ef836040518082815260200191505060405180910390a35050565b60008135905061147081611932565b92915050565b60008135905061148581611949565b92915050565b60008135905061149a81611960565b92915050565b6000602082840312156114b257600080fd5b60006114c084828501611461565b91505092915050565b600080604083850312156114dc57600080fd5b60006114ea85828601611461565b92505060206114fb85828601611461565b9150509250929050565b60008060006060848603121561151a57600080fd5b600061152886828701611461565b935050602061153986828701611461565b925050604061154a8682870161148b565b9150509250925092565b6000806040838503121561156757600080fd5b600061157585828601611461565b92505060206115868582860161148b565b9150509250929050565b6000602082840312156115a257600080fd5b60006115b084828501611476565b91505092915050565b6000602082840312156115cb57600080fd5b60006115d98482850161148b565b91505092915050565b6115eb81611860565b82525050565b6115fa81611872565b82525050565b611609816118ca565b82525050565b600061161a82611844565b611624818561184f565b93506116348185602086016118ee565b61163d81611921565b840191505092915050565b600061165560258361184f565b91507f436f6e74726163742068617320616c7265616479206265656e20696e6974696160008301527f6c697a65640000000000000000000000000000000000000000000000000000006020830152604082019050919050565b60006116bb60258361184f565b91507f436f6e747261637420686173206e6f7420796574206265656e20696e6974696160008301527f6c697a65640000000000000000000000000000000000000000000000000000006020830152604082019050919050565b61171d816118b0565b82525050565b61172c816118ba565b82525050565b600060208201905061174760008301846115e2565b92915050565b600060408201905061176260008301856115e2565b61176f6020830184611714565b9392505050565b600060208201905061178b60008301846115f1565b92915050565b60006020820190506117a66000830184611600565b92915050565b600060208201905081810360008301526117c6818461160f565b905092915050565b600060208201905081810360008301526117e781611648565b9050919050565b60006020820190508181036000830152611807816116ae565b9050919050565b60006020820190506118236000830184611714565b92915050565b600060208201905061183e6000830184611723565b92915050565b600081519050919050565b600082825260208201905092915050565b600061186b82611890565b9050919050565b60008115159050919050565b600061188982611860565b9050919050565b600073ffffffffffffffffffffffffffffffffffffffff82169050919050565b6000819050919050565b600063ffffffff82169050919050565b60006118d5826118dc565b9050919050565b60006118e782611890565b9050919050565b60005b8381101561190c5780820151818401526020810190506118f1565b8381111561191b576000848401525b50505050565b6000601f19601f8301169050919050565b61193b81611860565b811461194657600080fd5b50565b6119528161187e565b811461195d57600080fd5b50565b611969816118b0565b811461197457600080fd5b5056fe43616e2774207472616e736665722066726f6d207468652064657369726564206163636f756e74206265636175736520796f7520646f6e2774206861766520656e6f756768206f6620616e20616c6c6f77616e63652e4f564d5f58434841494e3a206d657373656e67657220636f6e747261637420756e61757468656e7469636174656443616e2774207472616e736665722066726f6d207468652064657369726564206163636f756e74206265636175736520697420646f65736e2774206861766520656e6f7567682062616c616e63652e4f564d5f58434841494e3a2077726f6e672073656e646572206f662063726f73732d646f6d61696e206d6573736167654163636f756e7420646f6573206e6f74206861766520656e6f75676820746f206275726e2e596f7520646f6e2774206861766520656e6f7567682062616c616e636520746f206d616b652074686973207472616e736665722143616e2774206275726e206d6f7265207468616e20746f74616c20737570706c792ea26469706673582212204ef2351abbeffba6bcb99cbd55b290e7d4a4bfae4c3a5a03a5878de61511dc6c64736f6c63430007060033",
  "linkReferences": {},
  "deployedLinkReferences": {}
}