{
  "_format": "hh-sol-artifact-1",
  "contractName": "L2DepositedERC20",
  "sourceName": "contracts/L2DepositedERC20.sol",
  "abi": [
    {
      "inputs": [
        {
          "internalType": "address",
          "name": "_l2CrossDomainMessenger",
          "type": "address"
        },
        {
          "internalType": "string",
          "name": "_name",
          "type": "string"
        }
      ],
      "stateMutability": "nonpayable",
      "type": "constructor"
    },
    {
      "anonymous": false,
      "inputs": [
        {
          "indexed": true,
          "internalType": "address",
          "name": "_owner",
          "type": "address"
        },
        {
          "indexed": true,
          "internalType": "address",
          "name": "_spender",
          "type": "address"
        },
        {
          "indexed": false,
          "internalType": "uint256",
          "name": "_value",
          "type": "uint256"
        }
      ],
      "name": "Approval",
      "type": "event"
    },
    {
      "anonymous": false,
      "inputs": [
        {
          "indexed": true,
          "internalType": "address",
          "name": "_to",
          "type": "address"
        },
        {
          "indexed": false,
          "internalType": "uint256",
          "name": "_amount",
          "type": "uint256"
        }
      ],
      "name": "DepositFinalized",
      "type": "event"
    },
    {
      "anonymous": false,
      "inputs": [
        {
          "indexed": false,
          "internalType": "contract iOVM_L1TokenGateway",
          "name": "_l1TokenGateway",
          "type": "address"
        }
      ],
      "name": "Initialized",
      "type": "event"
    },
    {
      "anonymous": false,
      "inputs": [
        {
          "indexed": true,
          "internalType": "address",
          "name": "_from",
          "type": "address"
        },
        {
          "indexed": true,
          "internalType": "address",
          "name": "_to",
          "type": "address"
        },
        {
          "indexed": false,
          "internalType": "uint256",
          "name": "_value",
          "type": "uint256"
        }
      ],
      "name": "Transfer",
      "type": "event"
    },
    {
      "anonymous": false,
      "inputs": [
        {
          "indexed": true,
          "internalType": "address",
          "name": "_from",
          "type": "address"
        },
        {
          "indexed": false,
          "internalType": "address",
          "name": "_to",
          "type": "address"
        },
        {
          "indexed": false,
          "internalType": "uint256",
          "name": "_amount",
          "type": "uint256"
        }
      ],
      "name": "WithdrawalInitiated",
      "type": "event"
    },
    {
      "inputs": [
        {
          "internalType": "address",
          "name": "_owner",
          "type": "address"
        },
        {
          "internalType": "address",
          "name": "_spender",
          "type": "address"
        }
      ],
      "name": "allowance",
      "outputs": [
        {
          "internalType": "uint256",
          "name": "",
          "type": "uint256"
        }
      ],
      "stateMutability": "view",
      "type": "function"
    },
    {
      "inputs": [
        {
          "internalType": "address",
          "name": "",
          "type": "address"
        },
        {
          "internalType": "address",
          "name": "",
          "type": "address"
        }
      ],
      "name": "allowances",
      "outputs": [
        {
          "internalType": "uint256",
          "name": "",
          "type": "uint256"
        }
      ],
      "stateMutability": "view",
      "type": "function"
    },
    {
      "inputs": [
        {
          "internalType": "address",
          "name": "_spender",
          "type": "address"
        },
        {
          "internalType": "uint256",
          "name": "_amount",
          "type": "uint256"
        }
      ],
      "name": "approve",
      "outputs": [
        {
          "internalType": "bool",
          "name": "",
          "type": "bool"
        }
      ],
      "stateMutability": "nonpayable",
      "type": "function"
    },
    {
      "inputs": [
        {
          "internalType": "address",
          "name": "_owner",
          "type": "address"
        }
      ],
      "name": "balanceOf",
      "outputs": [
        {
          "internalType": "uint256",
          "name": "",
          "type": "uint256"
        }
      ],
      "stateMutability": "view",
      "type": "function"
    },
    {
      "inputs": [
        {
          "internalType": "address",
          "name": "",
          "type": "address"
        }
      ],
      "name": "balances",
      "outputs": [
        {
          "internalType": "uint256",
          "name": "",
          "type": "uint256"
        }
      ],
      "stateMutability": "view",
      "type": "function"
    },
    {
      "inputs": [
        {
          "internalType": "address",
          "name": "_to",
          "type": "address"
        },
        {
          "internalType": "uint256",
          "name": "_amount",
          "type": "uint256"
        }
      ],
      "name": "finalizeDeposit",
      "outputs": [],
      "stateMutability": "nonpayable",
      "type": "function"
    },
    {
      "inputs": [],
      "name": "getFinalizeWithdrawalL1Gas",
      "outputs": [
        {
          "internalType": "uint32",
          "name": "",
          "type": "uint32"
        }
      ],
      "stateMutability": "view",
      "type": "function"
    },
    {
      "inputs": [
        {
          "internalType": "contract iOVM_L1TokenGateway",
          "name": "_l1TokenGateway",
          "type": "address"
        }
      ],
      "name": "init",
      "outputs": [],
      "stateMutability": "nonpayable",
      "type": "function"
    },
    {
      "inputs": [],
      "name": "l1TokenGateway",
      "outputs": [
        {
          "internalType": "contract iOVM_L1TokenGateway",
          "name": "",
          "type": "address"
        }
      ],
      "stateMutability": "view",
      "type": "function"
    },
    {
      "inputs": [],
      "name": "messenger",
      "outputs": [
        {
          "internalType": "address",
          "name": "",
          "type": "address"
        }
      ],
      "stateMutability": "view",
      "type": "function"
    },
    {
      "inputs": [],
      "name": "name",
      "outputs": [
        {
          "internalType": "string",
          "name": "",
          "type": "string"
        }
      ],
      "stateMutability": "view",
      "type": "function"
    },
    {
      "inputs": [],
      "name": "totalSupply",
      "outputs": [
        {
          "internalType": "uint256",
          "name": "",
          "type": "uint256"
        }
      ],
      "stateMutability": "view",
      "type": "function"
    },
    {
      "inputs": [
        {
          "internalType": "address",
          "name": "_to",
          "type": "address"
        },
        {
          "internalType": "uint256",
          "name": "_amount",
          "type": "uint256"
        }
      ],
      "name": "transfer",
      "outputs": [
        {
          "internalType": "bool",
          "name": "",
          "type": "bool"
        }
      ],
      "stateMutability": "nonpayable",
      "type": "function"
    },
    {
      "inputs": [
        {
          "internalType": "address",
          "name": "_from",
          "type": "address"
        },
        {
          "internalType": "address",
          "name": "_to",
          "type": "address"
        },
        {
          "internalType": "uint256",
          "name": "_amount",
          "type": "uint256"
        }
      ],
      "name": "transferFrom",
      "outputs": [
        {
          "internalType": "bool",
          "name": "",
          "type": "bool"
        }
      ],
      "stateMutability": "nonpayable",
      "type": "function"
    },
    {
      "inputs": [
        {
          "internalType": "uint256",
          "name": "_amount",
          "type": "uint256"
        }
      ],
      "name": "withdraw",
      "outputs": [],
      "stateMutability": "nonpayable",
      "type": "function"
    },
    {
      "inputs": [
        {
          "internalType": "address",
          "name": "_to",
          "type": "address"
        },
        {
          "internalType": "uint256",
          "name": "_amount",
          "type": "uint256"
        }
      ],
      "name": "withdrawTo",
      "outputs": [],
      "stateMutability": "nonpayable",
      "type": "function"
    }
  ],
  "bytecode": "0x60806040523480156200001c57600080620000196200012b565b50505b506040516200276a3803806200276a83398181016040528101906200004291906200045b565b6000818380806000806101000a816200005a6200019b565b8173ffffffffffffffffffffffffffffffffffffffff021916908373ffffffffffffffffffffffffffffffffffffffff160217906200009862000200565b505050505081600260005a620000ad62000267565b73ffffffffffffffffffffffffffffffffffffffff1673ffffffffffffffffffffffffffffffffffffffff1681526020019081526020016000208190620000f362000200565b50505081600481906200010562000200565b505050806005908051906020019062000120929190620002c6565b5050505050620005c3565b632a2a7adb598160e01b8152600481016020815285602082015260005b868110156200016857808601518160408401015260208101905062000148565b506020828760640184336000905af158600e01573d6000803e3d6000fd5b3d6001141558600a015760016000f35b505050565b6303daa959598160e01b8152836004820152602081602483336000905af158600e01573d6000803e3d6000fd5b3d6001141558600a015760016000f35b8051935060005b6040811015620001fb57600081830152602081019050620001df565b505050565b6322bd64c0598160e01b8152836004820152846024820152600081604483336000905af158600e01573d6000803e3d6000fd5b3d6001141558600a015760016000f35b60005b6040811015620002625760008183015260208101905062000246565b505050565b6373509064598160e01b8152602081600483336000905af158600e01573d6000803e3d6000fd5b3d6001141558600a015760016000f35b8051935060005b6040811015620002c157600081830152602081019050620002a5565b505050565b8280620002d26200019b565b600181600116156101000203166002900490600052602060002090601f01602090048101928262000312576000856200030a62000200565b50506200037f565b82601f106200033857805160ff191683800117856200033062000200565b50506200037f565b828001600101856200034962000200565b505082156200037f579182015b828111156200037e578251826200036c62000200565b50509160200191906001019062000356565b5b5090506200038e919062000392565b5090565b5b80821115620003b857600081600090620003ac62000200565b50505060010162000393565b5090565b6000620003d3620003cd84620004ff565b620004cb565b905082815260208101848484011115620003f757600080620003f46200012b565b50505b6200040484828562000566565b509392505050565b6000815190506200041d816200059e565b92915050565b600082601f83011262000440576000806200043d6200012b565b50505b815162000452848260208601620003bc565b91505092915050565b600080604083850312156200047a57600080620004776200012b565b50505b60006200048a858286016200040c565b925050602083015167ffffffffffffffff811115620004b357600080620004b06200012b565b50505b620004c18582860162000423565b9150509250929050565b6000604051905081810181811067ffffffffffffffff82111715620004f557620004f46200059c565b5b8060405250919050565b600067ffffffffffffffff8211156200051d576200051c6200059c565b5b601f19601f8301169050602081019050919050565b60006200053f8262000546565b9050919050565b600073ffffffffffffffffffffffffffffffffffffffff82169050919050565b60005b838110156200058657808201518184015260208101905062000569565b8381111562000596576000848401525b50505050565bfe5b620005a98162000532565b8114620005c057600080620005bd6200012b565b50505b50565b61219780620005d36000396000f3fe6080604052348015610019576000806100166116bb565b50505b50600436106101095760003560e01c80633cb747bf116100a0578063a84ce98c1161006f578063a84ce98c146102d1578063a9059cbb146102ef578063bdeaf6411461031f578063dd62ed3e1461033d57610109565b80633cb747bf1461023757806355b6ed5c1461025557806370a08231146102855780638d6e9a5b146102b557610109565b8063205c2878116100dc578063205c28781461019f57806323b872dd146101bb57806327e235e3146101eb5780632e1a7d4d1461021b57610109565b806306fdde0314610117578063095ea7b31461013557806318160ddd1461016557806319ab453c14610183575b6000806101146116bb565b50505b61011f61036d565b60405161012c9190611e32565b60405180910390f35b61014f600480360381019061014a9190611bbf565b610427565b60405161015c9190611dfc565b60405180910390f35b61016d610532565b60405161017a9190611e94565b60405180910390f35b61019d60048036038101906101989190611c04565b61053f565b005b6101b960048036038101906101b49190611bbf565b610694565b005b6101d560048036038101906101d09190611b67565b610744565b6040516101e29190611dfc565b60405180910390f35b61020560048036038101906102009190611af0565b610a05565b6040516102129190611e94565b60405180910390f35b61023560048036038101906102309190611c36565b610a24565b005b61023f610adb565b60405161024c9190611db8565b60405180910390f35b61026f600480360381019061026a9190611b22565b610b06565b60405161027c9190611e94565b60405180910390f35b61029f600480360381019061029a9190611af0565b610b32565b6040516102ac9190611e94565b60405180910390f35b6102cf60048036038101906102ca9190611bbf565b610b82565b005b6102d9610e89565b6040516102e69190611e17565b60405180910390f35b61030960048036038101906103049190611bbf565b610eb6565b6040516103169190611dfc565b60405180910390f35b6103276110a1565b6040516103349190611eaf565b60405180910390f35b61035760048036038101906103529190611b22565b6110ac565b6040516103649190611e94565b60405180910390f35b600580610378611729565b600181600116156101000203166002900480601f016020809104026020016040519081016040528092919081815260200182806103b3611729565b6001816001161561010002031660029004801561041f5780601f106103ed5761010080836103df611729565b04028352916020019161041f565b820191906000526020600020905b81610404611729565b815290600101906020018083116103fb57829003601f168201915b505050505081565b600081600360005a61043761178c565b73ffffffffffffffffffffffffffffffffffffffff1673ffffffffffffffffffffffffffffffffffffffff16815260200190815260200160002060008573ffffffffffffffffffffffffffffffffffffffff1673ffffffffffffffffffffffffffffffffffffffff16815260200190815260200160002081906104b86117e9565b5050508273ffffffffffffffffffffffffffffffffffffffff165a6104db61178c565b73ffffffffffffffffffffffffffffffffffffffff167f8c5be1e5ebec7d5bd14f71427d1e84f3dd0314c0f7b2291e5b200ac8c7c3b925846040518082815260200191505060405180910390a36001905092915050565b600461053c611729565b81565b600073ffffffffffffffffffffffffffffffffffffffff166001600090610564611729565b906101000a900473ffffffffffffffffffffffffffffffffffffffff1673ffffffffffffffffffffffffffffffffffffffff16146105e0576040517f08c379a00000000000000000000000000000000000000000000000000000000081526004016105ce90611e54565b604051809103906105dd6116bb565b50505b80600160006101000a816105f2611729565b8173ffffffffffffffffffffffffffffffffffffffff021916908373ffffffffffffffffffffffffffffffffffffffff1602179061062e6117e9565b5050507f908408e307fc569b417f6cbec5d5a06f44a0a505ac0479b47d421a4b2fd6a1e6600160009061065f611729565b906101000a900473ffffffffffffffffffffffffffffffffffffffff166040516106899190611e17565b60405180910390a150565b600073ffffffffffffffffffffffffffffffffffffffff1660016000906106b9611729565b906101000a900473ffffffffffffffffffffffffffffffffffffffff1673ffffffffffffffffffffffffffffffffffffffff161415610736576040517f08c379a000000000000000000000000000000000000000000000000000000000815260040161072490611e74565b604051809103906107336116bb565b50505b610740828261113a565b5050565b600081600260008673ffffffffffffffffffffffffffffffffffffffff1673ffffffffffffffffffffffffffffffffffffffff16815260200190815260200160002061078e611729565b10156107ee576040517f08c379a000000000000000000000000000000000000000000000000000000000815260040180806020018281038252604f81526020018061209d604f9139606001915050604051809103906107eb6116bb565b50505b81600360008673ffffffffffffffffffffffffffffffffffffffff1673ffffffffffffffffffffffffffffffffffffffff16815260200190815260200160002060005a61083961178c565b73ffffffffffffffffffffffffffffffffffffffff1673ffffffffffffffffffffffffffffffffffffffff16815260200190815260200160002061087b611729565b10156108db576040517f08c379a000000000000000000000000000000000000000000000000000000000815260040180806020018281038252605681526020018061201960569139606001915050604051809103906108d86116bb565b50505b81600260008573ffffffffffffffffffffffffffffffffffffffff1673ffffffffffffffffffffffffffffffffffffffff16815260200190815260200160002060008282610927611729565b0192505081906109356117e9565b50505081600260008673ffffffffffffffffffffffffffffffffffffffff1673ffffffffffffffffffffffffffffffffffffffff16815260200190815260200160002060008282610984611729565b0392505081906109926117e9565b5050508273ffffffffffffffffffffffffffffffffffffffff168473ffffffffffffffffffffffffffffffffffffffff167fddf252ad1be2c89b69c2b068fc378daa952ba7f163c4a11628f55a4df523b3ef846040518082815260200191505060405180910390a3600190509392505050565b6002602052806000526040600020600091509050610a21611729565b81565b600073ffffffffffffffffffffffffffffffffffffffff166001600090610a49611729565b906101000a900473ffffffffffffffffffffffffffffffffffffffff1673ffffffffffffffffffffffffffffffffffffffff161415610ac6576040517f08c379a0000000000000000000000000000000000000000000000000000000008152600401610ab490611e74565b60405180910390610ac36116bb565b50505b610ad85a610ad261178c565b8261113a565b50565b600080610ae6611729565b906101000a900473ffffffffffffffffffffffffffffffffffffffff1681565b600360205281600052604060002060205280600052604060002060009150915050610b2f611729565b81565b6000600260008373ffffffffffffffffffffffffffffffffffffffff1673ffffffffffffffffffffffffffffffffffffffff168152602001908152602001600020610b7b611729565b9050919050565b600073ffffffffffffffffffffffffffffffffffffffff166001600090610ba7611729565b906101000a900473ffffffffffffffffffffffffffffffffffffffff1673ffffffffffffffffffffffffffffffffffffffff161415610c24576040517f08c379a0000000000000000000000000000000000000000000000000000000008152600401610c1290611e74565b60405180910390610c216116bb565b50505b6001600090610c31611729565b906101000a900473ffffffffffffffffffffffffffffffffffffffff16610c56611258565b73ffffffffffffffffffffffffffffffffffffffff165a610c7561178c565b73ffffffffffffffffffffffffffffffffffffffff1614610cea576040517f08c379a000000000000000000000000000000000000000000000000000000000815260040180806020018281038252602e81526020018061206f602e913960400191505060405180910390610ce76116bb565b50505b8073ffffffffffffffffffffffffffffffffffffffff16610d09611258565b73ffffffffffffffffffffffffffffffffffffffff16636e296e456040518163ffffffff1660e01b81526004016020604051808303818680610d4961184e565b158015610d5e57600080610d5b6116bb565b50505b505a610d686118b1565b5050505050158015610d87573d6000803e3d6000610d846116bb565b50505b505050506040513d6020811015610da657600080610da36116bb565b50505b810190808051906020019092919050505073ffffffffffffffffffffffffffffffffffffffff1614610e2c576040517f08c379a00000000000000000000000000000000000000000000000000000000081526004018080602001828103825260308152602001806120ec6030913960400191505060405180910390610e296116bb565b50505b610e368383611288565b8273ffffffffffffffffffffffffffffffffffffffff167f162eb12ad2bd8b6ca7960f162208414ab3bc2da9f37953788ffd8cf850c3492b83604051610e7c9190611e94565b60405180910390a2505050565b6001600090610e96611729565b906101000a900473ffffffffffffffffffffffffffffffffffffffff1681565b600081600260005a610ec661178c565b73ffffffffffffffffffffffffffffffffffffffff1673ffffffffffffffffffffffffffffffffffffffff168152602001908152602001600020610f08611729565b1015610f68576040517f08c379a00000000000000000000000000000000000000000000000000000000081526004018080602001828103825260348152602001806121416034913960400191505060405180910390610f656116bb565b50505b81600260005a610f7661178c565b73ffffffffffffffffffffffffffffffffffffffff1673ffffffffffffffffffffffffffffffffffffffff16815260200190815260200160002060008282610fbc611729565b039250508190610fca6117e9565b50505081600260008573ffffffffffffffffffffffffffffffffffffffff1673ffffffffffffffffffffffffffffffffffffffff16815260200190815260200160002060008282611019611729565b0192505081906110276117e9565b5050508273ffffffffffffffffffffffffffffffffffffffff165a61104a61178c565b73ffffffffffffffffffffffffffffffffffffffff167fddf252ad1be2c89b69c2b068fc378daa952ba7f163c4a11628f55a4df523b3ef846040518082815260200191505060405180910390a36001905092915050565b6000620186a0905090565b6000600360008473ffffffffffffffffffffffffffffffffffffffff1673ffffffffffffffffffffffffffffffffffffffff16815260200190815260200160002060008373ffffffffffffffffffffffffffffffffffffffff1673ffffffffffffffffffffffffffffffffffffffff168152602001908152602001600020611132611729565b905092915050565b6111448282611296565b600063f4f7b41a60e01b8383604051602401611161929190611dd3565b604051602081830303815290604052907bffffffffffffffffffffffffffffffffffffffffffffffffffffffff19166020820180517bffffffffffffffffffffffffffffffffffffffffffffffffffffffff838183161783525050505090506111fb60016000906111d0611729565b906101000a900473ffffffffffffffffffffffffffffffffffffffff16826111f66110a1565b6112ac565b5a61120461178c565b73ffffffffffffffffffffffffffffffffffffffff167fbb2689ff876f7ef453cf8865dde5ab10349d222e2e1383c5152fbdb083f02da2848460405161124b929190611dd3565b60405180910390a2505050565b600080600090611266611729565b906101000a900473ffffffffffffffffffffffffffffffffffffffff16905090565b61129282826113da565b5050565b6112a85a6112a261178c565b826114c1565b5050565b6112b4611258565b73ffffffffffffffffffffffffffffffffffffffff16633dbb202b8484846040518463ffffffff1660e01b8152600401808473ffffffffffffffffffffffffffffffffffffffff168152602001806020018363ffffffff168152602001828103825284818151815260200191508051906020019080838360005b8381101561134957808201518184015260208101905061132e565b50505050905090810190601f1680156113765780820380516001836020036101000a031916815260200191505b509450505050506000604051808303816000878061139261184e565b1580156113a7576000806113a46116bb565b50505b505a6113b16119b1565b5050505050501580156113d1573d6000803e3d60006113ce6116bb565b50505b50505050505050565b806004600082826113e9611729565b0192505081906113f76117e9565b50505080600260008473ffffffffffffffffffffffffffffffffffffffff1673ffffffffffffffffffffffffffffffffffffffff16815260200190815260200160002060008282611446611729565b0192505081906114546117e9565b5050508173ffffffffffffffffffffffffffffffffffffffff16600073ffffffffffffffffffffffffffffffffffffffff167fddf252ad1be2c89b69c2b068fc378daa952ba7f163c4a11628f55a4df523b3ef836040518082815260200191505060405180910390a35050565b8060046114cc611729565b101561152c576040517f08c379a000000000000000000000000000000000000000000000000000000000815260040180806020018281038252602281526020018061217560229139604001915050604051809103906115296116bb565b50505b80600260008473ffffffffffffffffffffffffffffffffffffffff1673ffffffffffffffffffffffffffffffffffffffff168152602001908152602001600020611574611729565b10156115d4576040517f08c379a000000000000000000000000000000000000000000000000000000000815260040180806020018281038252602581526020018061211c60259139604001915050604051809103906115d16116bb565b50505b806004600082826115e3611729565b0392505081906115f16117e9565b50505080600260008473ffffffffffffffffffffffffffffffffffffffff1673ffffffffffffffffffffffffffffffffffffffff16815260200190815260200160002060008282611640611729565b03925050819061164e6117e9565b505050600073ffffffffffffffffffffffffffffffffffffffff168273ffffffffffffffffffffffffffffffffffffffff167fddf252ad1be2c89b69c2b068fc378daa952ba7f163c4a11628f55a4df523b3ef836040518082815260200191505060405180910390a35050565b632a2a7adb598160e01b8152600481016020815285602082015260005b868110156116f65780860151816040840101526020810190506116d8565b506020828760640184336000905af158600e01573d6000803e3d6000fd5b3d6001141558600a015760016000f35b505050565b6303daa959598160e01b8152836004820152602081602483336000905af158600e01573d6000803e3d6000fd5b3d6001141558600a015760016000f35b8051935060005b60408110156117875760008183015260208101905061176d565b505050565b6373509064598160e01b8152602081600483336000905af158600e01573d6000803e3d6000fd5b3d6001141558600a015760016000f35b8051935060005b60408110156117e4576000818301526020810190506117ca565b505050565b6322bd64c0598160e01b8152836004820152846024820152600081604483336000905af158600e01573d6000803e3d6000fd5b3d6001141558600a015760016000f35b60005b60408110156118495760008183015260208101905061182f565b505050565b638435035b598160e01b8152836004820152602081602483336000905af158600e01573d6000803e3d6000fd5b3d6001141558600a015760016000f35b8051935060005b60408110156118ac57600081830152602081019050611892565b505050565b638540661f598160e01b81526118f0565b6000819050818311156118d3578290505b92915050565b6000819050818310156118ea578290505b92915050565b836004820152846024820152606060448201528660648201526084810160005b8881101561192b578088015181830152602081019050611910565b506060828960a40184336000905af158600e01573d6000803e3d6000fd5b3d6001141558600a015760016000f35b815160408301513d6000853e8b8b82606087013350600060045af150596119808d3d6118d9565b8c0161198c81876118c2565b5b828110156119a4576000815260208101905061198d565b50839d5050505050505050565b6385979f76598160e01b81526119f0565b6000819050818311156119d3578290505b92915050565b6000819050818310156119ea578290505b92915050565b836004820152846024820152606060448201528760648201526084810160005b89811015611a2b578089015181830152602081019050611a10565b506060828a60a40184336000905af158600e01573d6000803e3d6000fd5b3d6001141558600a015760016000f35b815160408301513d6000853e8c8c82606087013350600060045af15059611a808e3d6119d9565b8d01611a8c81876119c2565b5b82811015611aa45760008152602081019050611a8d565b50839e5050505050505050565b600081359050611ac081611fb8565b92915050565b600081359050611ad581611fd8565b92915050565b600081359050611aea81611ff8565b92915050565b600060208284031215611b0b57600080611b086116bb565b50505b6000611b1984828501611ab1565b91505092915050565b60008060408385031215611b3e57600080611b3b6116bb565b50505b6000611b4c85828601611ab1565b9250506020611b5d85828601611ab1565b9150509250929050565b600080600060608486031215611b8557600080611b826116bb565b50505b6000611b9386828701611ab1565b9350506020611ba486828701611ab1565b9250506040611bb586828701611adb565b9150509250925092565b60008060408385031215611bdb57600080611bd86116bb565b50505b6000611be985828601611ab1565b9250506020611bfa85828601611adb565b9150509250929050565b600060208284031215611c1f57600080611c1c6116bb565b50505b6000611c2d84828501611ac6565b91505092915050565b600060208284031215611c5157600080611c4e6116bb565b50505b6000611c5f84828501611adb565b91505092915050565b611c7181611ee6565b82525050565b611c8081611ef8565b82525050565b611c8f81611f50565b82525050565b6000611ca082611eca565b611caa8185611ed5565b9350611cba818560208601611f74565b611cc381611fa7565b840191505092915050565b6000611cdb602583611ed5565b91507f436f6e74726163742068617320616c7265616479206265656e20696e6974696160008301527f6c697a65640000000000000000000000000000000000000000000000000000006020830152604082019050919050565b6000611d41602583611ed5565b91507f436f6e747261637420686173206e6f7420796574206265656e20696e6974696160008301527f6c697a65640000000000000000000000000000000000000000000000000000006020830152604082019050919050565b611da381611f36565b82525050565b611db281611f40565b82525050565b6000602082019050611dcd6000830184611c68565b92915050565b6000604082019050611de86000830185611c68565b611df56020830184611d9a565b9392505050565b6000602082019050611e116000830184611c77565b92915050565b6000602082019050611e2c6000830184611c86565b92915050565b60006020820190508181036000830152611e4c8184611c95565b905092915050565b60006020820190508181036000830152611e6d81611cce565b9050919050565b60006020820190508181036000830152611e8d81611d34565b9050919050565b6000602082019050611ea96000830184611d9a565b92915050565b6000602082019050611ec46000830184611da9565b92915050565b600081519050919050565b600082825260208201905092915050565b6000611ef182611f16565b9050919050565b60008115159050919050565b6000611f0f82611ee6565b9050919050565b600073ffffffffffffffffffffffffffffffffffffffff82169050919050565b6000819050919050565b600063ffffffff82169050919050565b6000611f5b82611f62565b9050919050565b6000611f6d82611f16565b9050919050565b60005b83811015611f92578082015181840152602081019050611f77565b83811115611fa1576000848401525b50505050565b6000601f19601f8301169050919050565b611fc181611ee6565b8114611fd557600080611fd26116bb565b50505b50565b611fe181611f04565b8114611ff557600080611ff26116bb565b50505b50565b61200181611f36565b8114612015576000806120126116bb565b50505b5056fe43616e2774207472616e736665722066726f6d207468652064657369726564206163636f756e74206265636175736520796f7520646f6e2774206861766520656e6f756768206f6620616e20616c6c6f77616e63652e4f564d5f58434841494e3a206d657373656e67657220636f6e747261637420756e61757468656e7469636174656443616e2774207472616e736665722066726f6d207468652064657369726564206163636f756e74206265636175736520697420646f65736e2774206861766520656e6f7567682062616c616e63652e4f564d5f58434841494e3a2077726f6e672073656e646572206f662063726f73732d646f6d61696e206d6573736167654163636f756e7420646f6573206e6f74206861766520656e6f75676820746f206275726e2e596f7520646f6e2774206861766520656e6f7567682062616c616e636520746f206d616b652074686973207472616e736665722143616e2774206275726e206d6f7265207468616e20746f74616c20737570706c792e",
  "linkReferences": {},
  "deployedLinkReferences": {}
}